{
  "contractName": "Voting",
  "abi": [
    {
      "anonymous": false,
      "inputs": [
        {
          "indexed": false,
          "internalType": "uint256",
          "name": "pollId",
          "type": "uint256"
        },
        {
          "indexed": false,
          "internalType": "string",
          "name": "question",
          "type": "string"
        },
        {
          "indexed": false,
          "internalType": "string[]",
          "name": "options",
          "type": "string[]"
        }
      ],
      "name": "PollCreated",
      "type": "event"
    },
    {
      "anonymous": false,
      "inputs": [
        {
          "indexed": false,
          "internalType": "uint256",
          "name": "pollId",
          "type": "uint256"
        },
        {
          "indexed": false,
          "internalType": "uint256",
          "name": "optionId",
          "type": "uint256"
        },
        {
          "indexed": false,
          "internalType": "address",
          "name": "voter",
          "type": "address"
        }
      ],
      "name": "Voted",
      "type": "event"
    },
    {
      "inputs": [],
      "name": "pollCount",
      "outputs": [
        {
          "internalType": "uint256",
          "name": "",
          "type": "uint256"
        }
      ],
      "stateMutability": "view",
      "type": "function",
      "constant": true
    },
    {
      "inputs": [
        {
          "internalType": "uint256",
          "name": "",
          "type": "uint256"
        }
      ],
      "name": "polls",
      "outputs": [
        {
          "internalType": "string",
          "name": "question",
          "type": "string"
        },
        {
          "internalType": "bool",
          "name": "active",
          "type": "bool"
        }
      ],
      "stateMutability": "view",
      "type": "function",
      "constant": true
    },
    {
      "inputs": [
        {
          "internalType": "string",
          "name": "_question",
          "type": "string"
        },
        {
          "internalType": "string[]",
          "name": "_options",
          "type": "string[]"
        }
      ],
      "name": "createPoll",
      "outputs": [],
      "stateMutability": "nonpayable",
      "type": "function"
    },
    {
      "inputs": [
        {
          "internalType": "uint256",
          "name": "_pollId",
          "type": "uint256"
        },
        {
          "internalType": "uint256",
          "name": "_optionId",
          "type": "uint256"
        }
      ],
      "name": "vote",
      "outputs": [],
      "stateMutability": "nonpayable",
      "type": "function"
    },
    {
      "inputs": [
        {
          "internalType": "uint256",
          "name": "_pollId",
          "type": "uint256"
        }
      ],
      "name": "getPoll",
      "outputs": [
        {
          "internalType": "string",
          "name": "",
          "type": "string"
        },
        {
          "internalType": "string[]",
          "name": "",
          "type": "string[]"
        },
        {
          "internalType": "uint256[]",
          "name": "",
          "type": "uint256[]"
        },
        {
          "internalType": "bool",
          "name": "",
          "type": "bool"
        }
      ],
      "stateMutability": "view",
      "type": "function",
      "constant": true
    },
    {
      "inputs": [
        {
          "internalType": "uint256",
          "name": "_pollId",
          "type": "uint256"
        }
      ],
      "name": "closePoll",
      "outputs": [],
      "stateMutability": "nonpayable",
      "type": "function"
    }
  ],
  "bytecode": "0x608060405234801561000f575f80fd5b506114a58061001d5f395ff3fe608060405234801561000f575f80fd5b5060043610610060575f3560e01c80631a8cbcaa146100645780637e3d71c3146100975780639207891d146100b35780639534e637146100d1578063ac2f0074146100ed578063b384abef1461011e575b5f80fd5b61007e6004803603810190610079919061088f565b61013a565b60405161008e9493929190610b18565b60405180910390f35b6100b160048036038101906100ac9190610d7e565b6103d0565b005b6100bb6104c8565b6040516100c89190610e03565b60405180910390f35b6100eb60048036038101906100e6919061088f565b6104ce565b005b6101076004803603810190610102919061088f565b61054b565b604051610115929190610e1c565b60405180910390f35b61013860048036038101906101339190610e4a565b6105fc565b005b60608060605f808511801561015157506001548511155b610190576040517f08c379a000000000000000000000000000000000000000000000000000000000815260040161018790610ed2565b60405180910390fd5b5f805f8781526020019081526020015f2090505f816001018054905067ffffffffffffffff8111156101c5576101c4610b78565b5b6040519080825280602002602001820160405280156101f35781602001602082028036833780820191505090505b5090505f5b826001018054905081101561024d57826002015f8281526020019081526020015f205482828151811061022e5761022d610ef0565b5b602002602001018181525050808061024590610f4a565b9150506101f8565b50815f018260010182846003015f9054906101000a900460ff1683805461027390610fbe565b80601f016020809104026020016040519081016040528092919081815260200182805461029f90610fbe565b80156102ea5780601f106102c1576101008083540402835291602001916102ea565b820191905f5260205f20905b8154815290600101906020018083116102cd57829003601f168201915b5050505050935082805480602002602001604051908101604052809291908181526020015f905b828210156103b9578382905f5260205f2001805461032e90610fbe565b80601f016020809104026020016040519081016040528092919081815260200182805461035a90610fbe565b80156103a55780601f1061037c576101008083540402835291602001916103a5565b820191905f5260205f20905b81548152906001019060200180831161038857829003601f168201915b505050505081526020019060010190610311565b505050509250955095509550955050509193509193565b6001815111610414576040517f08c379a000000000000000000000000000000000000000000000000000000000815260040161040b9061105e565b60405180910390fd5b60015f81548092919061042690610f4a565b91905055505f805f60015481526020019081526020015f20905082815f0190816104509190611219565b5081816001019080519060200190610469929190610779565b506001816003015f6101000a81548160ff0219169083151502179055507f4be3f505bf50604bde92e6940e2df40c36f90cb362640413d520080ca12eabb260015484846040516104bb939291906112e8565b60405180910390a1505050565b60015481565b5f811180156104df57506001548111155b61051e576040517f08c379a000000000000000000000000000000000000000000000000000000000815260040161051590610ed2565b60405180910390fd5b5f805f8381526020019081526020015f206003015f6101000a81548160ff02191690831515021790555050565b5f602052805f5260405f205f91509050805f01805461056990610fbe565b80601f016020809104026020016040519081016040528092919081815260200182805461059590610fbe565b80156105e05780601f106105b7576101008083540402835291602001916105e0565b820191905f5260205f20905b8154815290600101906020018083116105c357829003601f168201915b505050505090806003015f9054906101000a900460ff16905082565b5f8211801561060d57506001548211155b61064c576040517f08c379a000000000000000000000000000000000000000000000000000000000815260040161064390610ed2565b60405180910390fd5b5f808381526020019081526020015f206003015f9054906101000a900460ff166106ab576040517f08c379a00000000000000000000000000000000000000000000000000000000081526004016106a290611375565b60405180910390fd5b5f808381526020019081526020015f20600101805490508110610703576040517f08c379a00000000000000000000000000000000000000000000000000000000081526004016106fa906113dd565b60405180910390fd5b5f808381526020019081526020015f206002015f8281526020019081526020015f205f81548092919061073590610f4a565b91905055507fd91ecafccf238642dccd41161308b3eebe62a12bc5819daf5164780c221ec95b82823360405161076d9392919061143a565b60405180910390a15050565b828054828255905f5260205f209081019282156107bf579160200282015b828111156107be5782518290816107ae9190611219565b5091602001919060010190610797565b5b5090506107cc91906107d0565b5090565b5b808211156107ef575f81816107e691906107f3565b506001016107d1565b5090565b5080546107ff90610fbe565b5f825580601f10610810575061082d565b601f0160209004905f5260205f209081019061082c9190610830565b5b50565b5b80821115610847575f815f905550600101610831565b5090565b5f604051905090565b5f80fd5b5f80fd5b5f819050919050565b61086e8161085c565b8114610878575f80fd5b50565b5f8135905061088981610865565b92915050565b5f602082840312156108a4576108a3610854565b5b5f6108b18482850161087b565b91505092915050565b5f81519050919050565b5f82825260208201905092915050565b5f5b838110156108f15780820151818401526020810190506108d6565b5f8484015250505050565b5f601f19601f8301169050919050565b5f610916826108ba565b61092081856108c4565b93506109308185602086016108d4565b610939816108fc565b840191505092915050565b5f81519050919050565b5f82825260208201905092915050565b5f819050602082019050919050565b5f82825260208201905092915050565b5f610987826108ba565b610991818561096d565b93506109a18185602086016108d4565b6109aa816108fc565b840191505092915050565b5f6109c0838361097d565b905092915050565b5f602082019050919050565b5f6109de82610944565b6109e8818561094e565b9350836020820285016109fa8561095e565b805f5b85811015610a355784840389528151610a1685826109b5565b9450610a21836109c8565b925060208a019950506001810190506109fd565b50829750879550505050505092915050565b5f81519050919050565b5f82825260208201905092915050565b5f819050602082019050919050565b610a798161085c565b82525050565b5f610a8a8383610a70565b60208301905092915050565b5f602082019050919050565b5f610aac82610a47565b610ab68185610a51565b9350610ac183610a61565b805f5b83811015610af1578151610ad88882610a7f565b9750610ae383610a96565b925050600181019050610ac4565b5085935050505092915050565b5f8115159050919050565b610b1281610afe565b82525050565b5f6080820190508181035f830152610b30818761090c565b90508181036020830152610b4481866109d4565b90508181036040830152610b588185610aa2565b9050610b676060830184610b09565b95945050505050565b5f80fd5b5f80fd5b7f4e487b71000000000000000000000000000000000000000000000000000000005f52604160045260245ffd5b610bae826108fc565b810181811067ffffffffffffffff82111715610bcd57610bcc610b78565b5b80604052505050565b5f610bdf61084b565b9050610beb8282610ba5565b919050565b5f67ffffffffffffffff821115610c0a57610c09610b78565b5b610c13826108fc565b9050602081019050919050565b828183375f83830152505050565b5f610c40610c3b84610bf0565b610bd6565b905082815260208101848484011115610c5c57610c5b610b74565b5b610c67848285610c20565b509392505050565b5f82601f830112610c8357610c82610b70565b5b8135610c93848260208601610c2e565b91505092915050565b5f67ffffffffffffffff821115610cb657610cb5610b78565b5b602082029050602081019050919050565b5f80fd5b5f610cdd610cd884610c9c565b610bd6565b90508083825260208201905060208402830185811115610d0057610cff610cc7565b5b835b81811015610d4757803567ffffffffffffffff811115610d2557610d24610b70565b5b808601610d328982610c6f565b85526020850194505050602081019050610d02565b5050509392505050565b5f82601f830112610d6557610d64610b70565b5b8135610d75848260208601610ccb565b91505092915050565b5f8060408385031215610d9457610d93610854565b5b5f83013567ffffffffffffffff811115610db157610db0610858565b5b610dbd85828601610c6f565b925050602083013567ffffffffffffffff811115610dde57610ddd610858565b5b610dea85828601610d51565b9150509250929050565b610dfd8161085c565b82525050565b5f602082019050610e165f830184610df4565b92915050565b5f6040820190508181035f830152610e34818561090c565b9050610e436020830184610b09565b9392505050565b5f8060408385031215610e6057610e5f610854565b5b5f610e6d8582860161087b565b9250506020610e7e8582860161087b565b9150509250929050565b7f496e76616c696420706f6c6c20494400000000000000000000000000000000005f82015250565b5f610ebc600f836108c4565b9150610ec782610e88565b602082019050919050565b5f6020820190508181035f830152610ee981610eb0565b9050919050565b7f4e487b71000000000000000000000000000000000000000000000000000000005f52603260045260245ffd5b7f4e487b71000000000000000000000000000000000000000000000000000000005f52601160045260245ffd5b5f610f548261085c565b91507fffffffffffffffffffffffffffffffffffffffffffffffffffffffffffffffff8203610f8657610f85610f1d565b5b600182019050919050565b7f4e487b71000000000000000000000000000000000000000000000000000000005f52602260045260245ffd5b5f6002820490506001821680610fd557607f821691505b602082108103610fe857610fe7610f91565b5b50919050565b7f4174206c656173742074776f206f7074696f6e732061726520726571756972655f8201527f6400000000000000000000000000000000000000000000000000000000000000602082015250565b5f6110486021836108c4565b915061105382610fee565b604082019050919050565b5f6020820190508181035f8301526110758161103c565b9050919050565b5f819050815f5260205f209050919050565b5f6020601f8301049050919050565b5f82821b905092915050565b5f600883026110d87fffffffffffffffffffffffffffffffffffffffffffffffffffffffffffffffff8261109d565b6110e2868361109d565b95508019841693508086168417925050509392505050565b5f819050919050565b5f61111d6111186111138461085c565b6110fa565b61085c565b9050919050565b5f819050919050565b61113683611103565b61114a61114282611124565b8484546110a9565b825550505050565b5f90565b61115e611152565b61116981848461112d565b505050565b5b8181101561118c576111815f82611156565b60018101905061116f565b5050565b601f8211156111d1576111a28161107c565b6111ab8461108e565b810160208510156111ba578190505b6111ce6111c68561108e565b83018261116e565b50505b505050565b5f82821c905092915050565b5f6111f15f19846008026111d6565b1980831691505092915050565b5f61120983836111e2565b9150826002028217905092915050565b611222826108ba565b67ffffffffffffffff81111561123b5761123a610b78565b5b6112458254610fbe565b611250828285611190565b5f60209050601f831160018114611281575f841561126f578287015190505b61127985826111fe565b8655506112e0565b601f19841661128f8661107c565b5f5b828110156112b657848901518255600182019150602085019450602081019050611291565b868310156112d357848901516112cf601f8916826111e2565b8355505b6001600288020188555050505b505050505050565b5f6060820190506112fb5f830186610df4565b818103602083015261130d818561090c565b9050818103604083015261132181846109d4565b9050949350505050565b7f506f6c6c206973206e6f742061637469766500000000000000000000000000005f82015250565b5f61135f6012836108c4565b915061136a8261132b565b602082019050919050565b5f6020820190508181035f83015261138c81611353565b9050919050565b7f496e76616c6964206f7074696f6e2049440000000000000000000000000000005f82015250565b5f6113c76011836108c4565b91506113d282611393565b602082019050919050565b5f6020820190508181035f8301526113f4816113bb565b9050919050565b5f73ffffffffffffffffffffffffffffffffffffffff82169050919050565b5f611424826113fb565b9050919050565b6114348161141a565b82525050565b5f60608201905061144d5f830186610df4565b61145a6020830185610df4565b611467604083018461142b565b94935050505056fea26469706673582212205a27e6cffb43012a1b9dde42eb2a65cbd8d9cb914b5660dfe07d60dc6fb2918564736f6c63430008150033",
  "immutableReferences": {},
  "source": "// SPDX-License-Identifier: MIT\r\npragma solidity ^0.8.0;\r\n\r\ncontract Voting {\r\n    struct Poll {\r\n        string question;\r\n        string[] options;\r\n        mapping(uint => uint) votes;\r\n        bool active;\r\n    }\r\n\r\n    mapping(uint => Poll) public polls;\r\n    uint public pollCount;\r\n\r\n    event PollCreated(uint pollId, string question, string[] options);\r\n    event Voted(uint pollId, uint optionId, address voter);\r\n\r\n    function createPoll(string memory _question, string[] memory _options) public {\r\n        require(_options.length > 1, \"At least two options are required\");\r\n        pollCount++;\r\n        Poll storage newPoll = polls[pollCount];\r\n        newPoll.question = _question;\r\n        newPoll.options = _options;\r\n        newPoll.active = true;\r\n        emit PollCreated(pollCount, _question, _options);\r\n    }\r\n\r\n    function vote(uint _pollId, uint _optionId) public {\r\n        require(_pollId > 0 && _pollId <= pollCount, \"Invalid poll ID\");\r\n        require(polls[_pollId].active, \"Poll is not active\");\r\n        require(_optionId < polls[_pollId].options.length, \"Invalid option ID\");\r\n        \r\n        polls[_pollId].votes[_optionId]++;\r\n        emit Voted(_pollId, _optionId, msg.sender);\r\n    }\r\n\r\n    function getPoll(uint _pollId) public view returns (string memory, string[] memory, uint[] memory, bool) {\r\n        require(_pollId > 0 && _pollId <= pollCount, \"Invalid poll ID\");\r\n        Poll storage poll = polls[_pollId];\r\n        uint[] memory voteCounts = new uint[](poll.options.length);\r\n        for (uint i = 0; i < poll.options.length; i++) {\r\n            voteCounts[i] = poll.votes[i];\r\n        }\r\n        return (poll.question, poll.options, voteCounts, poll.active);\r\n    }\r\n\r\n    function closePoll(uint _pollId) public {\r\n        require(_pollId > 0 && _pollId <= pollCount, \"Invalid poll ID\");\r\n        polls[_pollId].active = false;\r\n    }\r\n}",
  "sourcePath": "D:\\d_drive\\Arcade\\web3app\\DemocraDApp\\contracts\\Voting.sol",
  "compiler": {
    "name": "solc",
    "version": "0.8.21+commit.d9974bed.Emscripten.clang"
  },
  "schemaVersion": "3.4.16",
  "updatedAt": "2024-07-06T09:59:09.929Z",
  "networkType": "ethereum",
  "devdoc": {
    "kind": "dev",
    "methods": {},
    "version": 1
  },
  "userdoc": {
    "kind": "user",
    "methods": {},
    "version": 1
  }
}